:020000040800F2
:1000000048090020650100086D0100086F01000823
:100010006501000800E70000000325500001000D05
:100020000000000000000000000000007101000856
:1000300000000000000000007301000875010008C6
:1000400077010008770100087701000877010008B0
:1000500077010008770100087701000877010008A0
:100060007701000877010008770100087701000890
:100070007701000877010008770100087701000880
:10008000490C000877010008000000007701000813
:100090007701000877010008770100087701000860
:1000A000770100087701000877010008E10C0008DB
:1000B0007701000800000000770100080000000040
:1000C00000F002F800F03EF80CA030C80838241800
:1000D0002D18A246671EAB4654465D46AC4201D180
:1000E00000F030F87E460F3E0FCCB6460126334274
:1000F00000D0FB1AA246AB4633431847780F0000E6
:10010000980F0000103A02D378C878C1FAD8520785
:1001100001D330C830C101D504680C6070470000BD
:100120000023002400250026103A01D378C1FBD813
:10013000520700D330C100D50B6070471FB51FBDFB
:1001400010B510BD00F070F91146FFF7F7FF00F091
:1001500079FE00F088F903B4FFF7F2FF03BC00F06A
:10016000BDF900000748804707480047FEE7FEE763
:10017000FEE7FEE7FEE7FEE704480549054A064BB1
:1001800070470000ED0B0008C10000084801002086
:1001900048090020480300204803002000220309EA
:1001A0008B422CD3030A8B4211D300239C464EE092
:1001B00003460B433CD4002243088B4231D303094E
:1001C0008B421CD3030A8B4201D394463FE0C30900
:1001D0008B4201D3CB01C01A524183098B4201D318
:1001E0008B01C01A524143098B4201D34B01C01A03
:1001F000524103098B4201D30B01C01A5241C3087B
:100200008B4201D3CB00C01A524183088B4201D3E9
:100210008B00C01A524143088B4201D34B00C01AD5
:100220005241411A00D201465241104670475DE0EA
:10023000CA0F00D04942031000D34042534000226D
:100240009C4603098B422DD3030A8B4212D3FC2216
:10025000890112BA030A8B420CD3890192118B4295
:1002600008D3890192118B4204D389013AD09211AB
:1002700000E08909C3098B4201D3CB01C01A524166
:1002800083098B4201D38B01C01A524143098B422F
:1002900001D34B01C01A524103098B4201D30B0118
:1002A000C01A5241C3088B4201D3CB00C01A52413D
:1002B00083088B4201D38B00C01A5241D9D2430824
:1002C0008B4201D34B00C01A5241411A00D2014661
:1002D000634652415B10104601D34042002B00D5CB
:1002E0004942704763465B1000D3404201B500208D
:1002F000C046C04602BD7047704770471F22030CBE
:1003000002D10F22000402D0030E03D004E000202B
:10031000014670470002083A030F01D10001121F85
:10032000830F01D18000921E002801DB4000521E85
:10033000120551184205C012411810467047C10FEE
:10034000C90700D04042012292071143D6E701219C
:100350008907D3E7F8B5224C4E00069DA6420AD87D
:10036000A64201D1002806D15E00A64203D8A642CB
:100370000AD1002A08D00D24240425422CD0294675
:10038000002000F02FF8F8BD0C461C430CD4994215
:1003900002D0EFF30080F8BD904202D0EFF300806E
:1003A000F8BDEFF30080F8BD09242407E5008B4277
:1003B00006D0EFF30080A043591A06D2284304E088
:1003C000101A05D3EFF30080A04380F30088F8BD36
:1003D000EFF30080A043F1E7009500F01BF8F8BDB3
:1003E0000000E0FFC80212D54803400F002804D0E7
:1003F000C803C043012188407047EFF3008000012B
:10040000000903210907084380F300887047002092
:100410007047000010B500200249029A00F02BF846
:1004200010BD00000000F87F754600F053F8AE469E
:10043000050069465346C008C000854618B020B57F
:10044000FFF79AFE60BC00274908B6460026C0C5E3
:10045000C0C5C0C5C0C5C0C5C0C5C0C5C0C5403D7C
:1004600049008D46704710B50446C046C046204638
:10047000FFF771FE10BD10B50C461107090F0929D1
:1004800004D00A290AD008290CD104E0114608201A
:10049000FFF7A8FF06E0510606D501E0510601D599
:1004A0000120C007214610BDD10607D50101090969
:1004B000CC084907000E0006044309E0410F200262
:1004C0004907000A0143200E00061D22D1410143C5
:1004D0000846E7E700487047E80000200149182077
:1004E000ABBEFEE72600020070470000FEB500220A
:1004F000825E00250E46074613462C46012905D18B
:10050000502A03DB012000F01DF9FEBD0020009001
:10051000022008E04100795E914200DA0A469942E1
:1005200000DD0B46801CB042F4DB981AC10F08189E
:10053000401000B2019019461046FFF739FE0146FF
:100540000120401AFFF7FBFE49004908164A174BE5
:1005500000F04EFD02D90098002802D000200121B1
:1005600010E00020012107E04200BB5E019A6D000F
:10057000934200DD0C43801CB042F5DB04E06D00CB
:100580000C43801CB042FADB09200F21C00600F0AA
:1005900053F900282146284602D000F025F8FEBD78
:1005A00000F0A2FAFEBD00009A9999999999B93F75
:1005B00070B505460A4800230A4C0EE0EA5C50403C
:1005C0000022C60702D04008604000E04008521CEC
:1005D00092B2082AF5D35B1C9BB28B42EEDB70BD56
:1005E000FFFF000001A0000010B5054A9368834298
:1005F00005D15068884202D1002000F0A3F810BD58
:10060000D800002070B50C4D00246868002810D078
:1006100000F0DEFC7D21C90088420AD9074908485C
:1006200000F030FA0749084800F02CFA01240020B5
:100630006860204670BD00000000002000FB000044
:1006400000F8000000FF000000FC000070B53B480F
:1006500041692F22520411434161C16902221143B1
:10066000C16181690122114381610023344C1A4622
:100670001946204600F020F909250023ED061A4608
:100680000721284600F018F90023012206212846F8
:1006900000F012F900231A460421204600F00CF95C
:1006A000FF26013632460121204600F0D5F83246B9
:1006B0000621204600F0D0F832460F21284600F0EF
:1006C000CBF800220321204600F0C6F8760032461F
:1006D0000021284600F0C0F832460121284600F0EB
:1006E000BBF832460221284600F0B6F83246032114
:1006F000284600F0B1F832460421284600F0ACF854
:1007000032460521284600F0A7F832460B2128463C
:1007100000F0A2F832460C21284600F09DF832463F
:100720000521204600F098F832460721204600F0C7
:1007300093F800F027F962B670BD00000010024087
:100740000004004805490A88002A05D1002801D084
:100750000A2000E0142008807047000034000020C8
:1007600010B5044600F04EF8094A106909490840DE
:10077000106111690223194311615461106940210C
:100780000843106100F03EF810699843106110BDF5
:1007900000200240C9DEFFFF0248016980221143A8
:1007A000016170470020024010B50B46044600F07E
:1007B00029F80A4A10690A490840106110690121A4
:1007C00008431061238000F01DF8180C608000F0D1
:1007D00019F8106940084000106110BD0020024067
:1007E000C9DEFFFF04480169090603D503494160DA
:1007F0000349416070470000002002402301674523
:10080000AB89EFCD0248C168C907FCD17047000031
:1008100000200240064AD0700648426A511881639F
:10082000026904218A430261C2680A43C2607047B8
:100830004400002000040040006901228A4010406A
:1008400000D00120704701228A4011048161704765
:1008500001228A4082617047F0B501238B404D0030
:100860000324AC400568A5430560D506456801D55D
:100870001D4300E09D434560856893044F000D4E85
:100880000321B940A5433140002B01DA254302E0A2
:10089000D30400D50D438560C368A343D50501D5B6
:1008A0000B4305E0910503D50249C9430C4023439E
:1008B000C360F0BD55555555F0B501268E404C002E
:1008C0000321A1400468154D0F468C432F403C4343
:1008D0000460DC06446801D5344300E0B44344605E
:1008E00085688D439C0401D50D4302E0DC0400D5EE
:1008F0003D438560C4688C43DD0501D53C4305E07C
:100900009B0503D5054BDB4319400C43C460002A0B
:1009100001D08661F0BD31048161F0BD555555555A
:10092000022801D3801EC0B2072800D9072004493D
:10093000024A0A6048600020086070475555000070
:100940000030004010B5FF24240201290BD013020F
:1009500002290DD0032910D0042903D1C169C9B2DD
:100960000B43C36110BD816921401143816110BDFA
:100970008169C9B20B43836110BDC1692140114334
:10098000C16110BD08B500F0F7F87D21890112485A
:100990000068FFF703FC401E104908600220002396
:1009A0001A460F2100900E4800F01EF80022012187
:1009B0000B48FFF7C7FF0948006809494863002052
:1009C0004862102001218140064A116000BF04489E
:1009D00000F09EF808BD000018000020080000206C
:1009E0000004004000E100E030B50025039C0560F4
:1009F0004360C4608162691EC1620260012141617D
:100A000030BD000070B5102421461748FFF7D0FD17
:100A1000054621461548FFF7CBFD1549164E0A88B5
:100A20001449164C95420DD1A84202D10888A8421B
:100A300004D00120308000F0D3FA70600A480FC85B
:100A40000FC470BD0988884204D108480FC80FC47C
:100A5000022003E00A480FC80FC40320308000F0D2
:100A6000BFFA706070BD000000F8000000FC0000DC
:100A700000FB000000FF000000000020D800002064
:100A800054100008F3B5064681B010211248FFF754
:100A90008FFD0090114900204860FFF7A3FEFFF78B
:100AA000B1FE3046FFF75CFEFFF7ACFE04250A4CB2
:100AB0000B4F08E002CC3046FFF776FE361DFFF7FD
:100AC000A1FE084807606D1EF4D200990298FFF756
:100AD0006BFEFFF761FEFEBDD80000200000002085
:100AE000AAAA00000030004010B5044A516090608E
:100AF00000F0A2F90249086010BD0000D8000020F3
:100B00000400002001490870704700001400002014
:100B10000168012211430160704700001348016819
:100B200001231943016001688907FCD50168104A57
:100B30001140016000224260C362026341680123E8
:100B4000DB041943416001685B01194301600168DE
:100B5000084B102119604168022319434160416824
:100B60000907890F0229FAD18260704700100240FC
:100B7000F8FF00000020024070B5174E71680C208D
:100B8000164A174C014004D05010042903D00829FC
:100B900003D0226016E0206014E0726871680123BF
:100BA00092021B04150F1940AD1C002907D0F16AF1
:100BB0000907090F491CFFF7F1FA6843EBE70948F9
:100BC00045432560706808490006000F085C2168ED
:100BD000C140216070BD00000010024000127A0088
:100BE0001800002000093D00641000081348016847
:100BF0000122114301604168114A114041600168BE
:100C0000104A114001600168012292049143016081
:100C100041683F22120491434160C16A09090901F8
:100C2000C162016BFF22543291430163416B490859
:100C300049004163002181607047000000100240BC
:100C40000CB8FFF8FFFFF6FE10B51E480069022140
:100C50000840002835D01B48C0680840002830D024
:100C6000194801780068401C174A1060C807C00F77
:100C7000002804D015480068401C14490860144836
:100C8000104908610846406B1249096840180D492F
:100C900048631148007800280FD00B480078C0073F
:100CA000C00F002804D004210C48FFF7D1FD08E054
:100CB00004210A48FFF7C7FD03E004210748FFF7B6
:100CC000C2FD10BD00040040100000200C000020F8
:100CD000FDFF000008000020140000200004004870
:100CE00070B50D4C20680D4D40060CD5E1692046CD
:100CF000490608D54022114600F012F8A8684108BC
:100D00000320FFF787FDE069000703D02F20206252
:100D10000120287070BD0000003801404400002010
:100D2000036A0B430362016891430160704700004E
:100D300010B5134CA08800281DD00020205E00F0C4
:100D400047F90221615E0F4B4A009A5E904212D32E
:100D5000491C08B20C49608000228A5E90420BDA7E
:100D600000F06AF82080A078C00701D0002000E0E1
:100D70000120FFF7C7FE10BD0020A080F6E70000AD
:100D80002C0000205400002022000020F8B500268E
:100D900003212648FFF750FD254F264C002813D08D
:100DA0002088002501282BD0E06800280AD000F018
:100DB0000FF97D21C900884204D9E560A088E08050
:100DC0000126A5803046F8BD0125258060880028D1
:100DD000F8D100F031F8A0606580E06800F0F8F824
:100DE0001428EFD3A0880028ECD0E06800F0F0F8D9
:100DF00001460420205E4200B952401CA080E1E779
:100E000025800420205E412801DBA58009E0A06840
:100E100000F0DEF801460420205E4200B952401C7A
:100E2000A080658000F008F8E060CBE7000400488F
:100E3000540000201C000020014908687047000091
:100E40000C000020FFF76AFE0420FFF769FDFFF7A2
:100E5000FDFB0020FFF7D6FD0E4C0F4D0F4E02E0BC
:100E60002C60FFF7CFFB30680028F9D10C4CFFF75E
:100E7000C9FBFFF78BFF002804D00021615E094801
:100E8000FFF734FBFFF754FF00F046F800F00CF8D2
:100E9000EDE70000AAAA0000003000400400002096
:100EA000220000205400002070B5194E0121304668
:100EB000FFF7C2FC0025174C002820680AD0002844
:100EC0000DD000F085F81E2802D90120FFF73AFC6A
:100ED000256004E0002802D1FFF7AEFF2060062164
:100EE0003046FFF7A9FC002860680AD0002807D028
:100EF00000F06EF81E2802D90020FFF723FC656081
:100F000070BD0028FCD1FFF797FF606070BD000046
:100F1000000400483C000020F8B52B4C0020205E67
:100F2000FF2600252D361E27142828D006DC002891
:100F300009D00A2811D00B2843D117E0152829D051
:100F40001E283ED135E000212048FFF77CFC092017
:100F50000721C006FFF777FCF8BD00211B48FFF70B
:100F600077FCFFF769FF60600B2011E0606800F01C
:100F70002FF8B042F0D927800021144813E009204F
:100F80000721C006FFF764FCFFF756FF60601520DD
:100F90002080F8BD606800F01BF8B042F9D9092044
:100FA00027800721C006FFF74EFCFFF745FF606072
:100FB000F8BD606800F00CF8FF21F5318842F7D9E0
:100FC00065602580F8BD0000340000200004004862
:100FD000014602480268501A704700000C000020C9
:100FE00002490868002800D1401E70470C0000200C
:100FF00070B501250C002D051C4310D4EC4206D41D
:10100000AC420AD4994200D070BD904270BDE94212
:1010100017D4EB4215D4994270BD894270BDEC42A1
:1010200006D5AC42F9D58B4200D070BD824270BD6E
:101030006D004C00EC4204D25C00EC4201D28B42C9
:1010400070BD034C30B4FFF785F930BC70BD00BFF4
:1010500019001604010000007B000000C801000018
:101060000000000000000000000000000102030476
:101070000607080994100008000000205400000032
:1010800004010008E810000854000020F4080000E3
:101090002001000800000000000000000000000027
:1010A000000000000000000000000000006CDC02F6
:1010B0000000000000000000000000000000000030
:1010C0000000000000000000000000000000000020
:1010D0000000000000000000000000000000000010
:0810E000000000000000000008
:04000005080000C12E
:00000001FF
