:020000040800F2
:1000000050090020650100086D0100086F0100081B
:100010006501000800E70000000325500001000D05
:100020000000000000000000000000007101000856
:1000300000000000000000007301000875010008C6
:1000400077010008770100087701000877010008B0
:1000500077010008770100087701000877010008A0
:100060007701000877010008770100087701000890
:100070007701000877010008770100087701000880
:100080008D0E0008770100080000000077010008CD
:100090007701000877010008770100087701000860
:1000A000770100087701000877010008250F000894
:1000B0007701000800000000770100080000000040
:1000C00000F002F800F03EF80CA030C80838241800
:1000D0002D18A246671EAB4654465D46AC4201D180
:1000E00000F030F87E460F3E0FCCB6460126334274
:1000F00000D0FB1AA246AB4633431847B4120000A7
:10010000D4120000103A02D378C878C1FAD8520746
:1001100001D330C830C101D504680C6070470000BD
:100120000023002400250026103A01D378C1FBD813
:10013000520700D330C100D50B6070471FB51FBDFB
:1001400010B510BD00F070F91146FFF7F7FF00F091
:10015000E9FF00F088F903B4FFF7F2FF03BC00F0F9
:10016000BDF900000748804707480047FEE7FEE763
:10017000FEE7FEE7FEE7FEE704480549054A064BB1
:1001800070470000190E0008C1000008500100204F
:1001900050090020500300205003002000220309D2
:1001A0008B422CD3030A8B4211D300239C464EE092
:1001B00003460B433CD4002243088B4231D303094E
:1001C0008B421CD3030A8B4201D394463FE0C30900
:1001D0008B4201D3CB01C01A524183098B4201D318
:1001E0008B01C01A524143098B4201D34B01C01A03
:1001F000524103098B4201D30B01C01A5241C3087B
:100200008B4201D3CB00C01A524183088B4201D3E9
:100210008B00C01A524143088B4201D34B00C01AD5
:100220005241411A00D201465241104670475DE0EA
:10023000CA0F00D04942031000D34042534000226D
:100240009C4603098B422DD3030A8B4212D3FC2216
:10025000890112BA030A8B420CD3890192118B4295
:1002600008D3890192118B4204D389013AD09211AB
:1002700000E08909C3098B4201D3CB01C01A524166
:1002800083098B4201D38B01C01A524143098B422F
:1002900001D34B01C01A524103098B4201D30B0118
:1002A000C01A5241C3088B4201D3CB00C01A52413D
:1002B00083088B4201D38B00C01A5241D9D2430824
:1002C0008B4201D34B00C01A5241411A00D2014661
:1002D000634652415B10104601D34042002B00D5CB
:1002E0004942704763465B1000D3404201B500208D
:1002F000C046C04602BD7047704770471F22030CBE
:1003000002D10F22000402D0030E03D004E000202B
:10031000014670470002083A030F01D10001121F85
:10032000830F01D18000921E002801DB4000521E85
:10033000120551184205C012411810467047C10FEE
:10034000C90700D04042012292071143D6E701219C
:100350008907D3E7F8B5224C4E00069DA6420AD87D
:10036000A64201D1002806D15E00A64203D8A642CB
:100370000AD1002A08D00D24240425422CD0294675
:10038000002000F02FF8F8BD0C461C430CD4994215
:1003900002D0EFF30080F8BD904202D0EFF300806E
:1003A000F8BDEFF30080F8BD09242407E5008B4277
:1003B00006D0EFF30080A043591A06D2284304E088
:1003C000101A05D3EFF30080A04380F30088F8BD36
:1003D000EFF30080A043F1E7009500F01BF8F8BDB3
:1003E0000000E0FFC80212D54803400F002804D0E7
:1003F000C803C043012188407047EFF3008000012B
:10040000000903210907084380F300887047002092
:100410007047000010B500200249029A00F02BF846
:1004200010BD00000000F87F754600F053F8AE469E
:10043000050069465346C008C000854618B020B57F
:10044000FFF79AFE60BC00274908B6460026C0C5E3
:10045000C0C5C0C5C0C5C0C5C0C5C0C5C0C5403D7C
:1004600049008D46704710B50446C046C046204638
:10047000FFF771FE10BD10B50C461107090F0929D1
:1004800004D00A290AD008290CD104E0114608201A
:10049000FFF7A8FF06E0510606D501E0510601D599
:1004A0000120C007214610BDD10607D50101090969
:1004B000CC084907000E0006044309E0410F200262
:1004C0004907000A0143200E00061D22D1410143C5
:1004D0000846E7E700487047EC0000200149182073
:1004E000ABBEFEE72600020070470000F0B589B001
:1004F00004460D460027E75F0020205E079000209D
:1005000005900026012D07D1205E502804DB012034
:1005100000F058F909B0F0BD0020049002200EE070
:100520004100625E07998A4202DA4100615E0791EA
:100530004100615EB94201DD4100675E801CA84256
:10054000EEDB0799781AC10F0918491009B2069114
:1005500039460798FFF72CFE0121081A0190FFF792
:10056000EEFE490049081C4A1C4B0391029000F022
:10057000DDFE01D8012004900498002810D100BFAE
:100580000BE00599490005914100625E06998A4297
:1005900000DC01E001210E43801CA842F1DB09E0F0
:1005A000002005E005994900059101210E43801CBA
:1005B000A842F7DB0F210920C00600F099F90028B6
:1005C00004D13146059800F04FFB03E03146059811
:1005D00000F026F800BF9DE79A9999999999B93F3B
:1005E00030B502460B460C48002112E0555C6840CD
:1005F00000240AE0C507ED0F002D03D04010074D81
:10060000684000E04010651CACB2082CF2DB4D1CC9
:10061000A9B29942EADB30BDFFFF000001A0000053
:1006200070B505460C4606488068A84206D10448C5
:100630004068A04202D1002000F0C4F870BD000064
:10064000DC00002010B500241048006800280BD002
:100650000E48006800F05AFE7D21C900884201D989
:10066000012002E0002000E0002000280BD0084913
:10067000084800F0C1FA0849084800F0BDFA012412
:10068000002002490860204610BD00000000002044
:1006900000FB000000F8000000FF000000FC00006C
:1006A00010B5464840692F21490408434349486131
:1006B0000846C069022108434049C861084680696C
:1006C000012108433D49886100231A4619463C48E8
:1006D00000F068F900231A4607210920C00600F03F
:1006E00061F90023012206210920C00600F05AF911
:1006F00000231A460421324800F054F9FF22013247
:1007000001212F4800F008F9FF22013206212C4870
:1007100000F002F9FF2201320F210920C00600F08B
:10072000FBF800220321264800F0F6F801225202CD
:1007300000210920C00600F0EFF801225202012139
:100740000920C00600F0E8F8012252020221092027
:10075000C00600F0E1F80122520203210920C00680
:1007600000F0DAF80122520204210920C00600F04C
:10077000D3F80122520205210920C00600F0CCF86E
:10078000012252020B210920C00600F0C5F8012207
:1007900052020C210920C00600F0BEF801225202CC
:1007A0000521074800F0B8F8012252020721044849
:1007B00000F0B2F800F086F962B610BD00100240F9
:1007C0000004004807490988002900D07047002824
:1007D00003D00A21034A118002E01421014A11804A
:1007E00000BFF3E73400002000B5014600F05EF8DA
:1007F0000D4800690D4A10400B4A1061104600690F
:1008000002221043084A10611046416100694022EB
:100810001043054A106100F049F8034800690222BC
:100820009043014A106100BD00200240C9DEFFFF75
:1008300003480069802108430149086170470000AE
:100840000020024000B5024600F030F80C48006974
:100850000C4B18400A4B18611846006901231843D5
:10086000074B1861118000F021F8080C508000F04F
:100870001DF80348006940084000014B186100BDA5
:1008800000200240C9DEFFFF0548006980210840C2
:10089000002804D003480249486003484860704774
:1008A0000020024023016745AB89EFCD00BF03481C
:1008B000C068C007C00F0028F9D17047002002406F
:1008C000094B1870094A526A5218084B9A631A4623
:1008D000126904239A43054B1A611A46D26804230D
:1008E0001A43024BDA6070474E00002000040040BB
:1008F0000246106901238B401840002801D00120D6
:1009000070470020FCE701228A4012048261704790
:1009100001228A4082617047F0B50C4613460126D9
:10092000A640354667000326BE40314606688E4322
:10093000066010261E40002E03D046682E434660F7
:1009400002E04668AE43466082688A430126760329
:100950001E40002E03D016460E43324607E0012605
:1009600036031E40002E02D00D4E0E4032438260F0
:10097000C6688E433246FF2601361E40002E03D045
:10098000074E0E40324308E0012676021E40002E3C
:1009900003D0034EF6430E403243C260F0BD000068
:1009A00055555555FFB50C460126A64035466700FE
:1009B0000326BE40314606688E43204F0F403E431B
:1009C000066010261E40002E03D046682E43466067
:1009D00002E04668AE43466082688A430126760399
:1009E0001E40002E03D016460E43324607E0012675
:1009F00036031E40002E02D0104E0E40324382605D
:100A0000C6688E433246FF2601361E40002E03D0B4
:100A10000A4E0E40324308E0012676021E40002EA8
:100A200003D0064EF6430E403243C260029E002EB3
:100A300001D0856101E02E048661FFBD55555555F5
:100A4000022801DB811EC8B2072800DD0720044907
:100A5000044A11601146486000211160704700008F
:100A6000555500000030004030B50B46012B06D034
:100A7000022B0ED0032B12D0042B20D119E0846955
:100A8000FF252D022C4021460C461443214681614E
:100A900015E08469E1B21402214381610FE0C46969
:100AA000FF252D022C4021460C4614432146C161EE
:100AB00005E0C469E1B214022143C16100BF00BF77
:100AC00030BD000008B500F04FF97D2189011248C2
:100AD0000068FFF763FB401E1049086002200023F6
:100AE0001A460F2100900E4800F01EF80022012146
:100AF0000B48FFF7B9FF094800680949486300201F
:100B00004862102001218140064A116000BF04485C
:100B100000F0D6F808BD00001800002008000020F2
:100B20000004004000E100E030B5039C00250560B2
:100B30004360C46081626D1EC5620260012545612B
:100B400030BD0000F8B5102421462348FFF748FDCA
:100B5000054621462148FFF743FD06462048008808
:100B6000854215D1AE4203D11E480088A84206D066
:100B700001201D49088000F0D1FB1C4908601C4879
:100B800015490A468CCAC9688CC00C38C16022E07D
:100B90001448008886420FD1154810490A468CCA6D
:100BA000C9688CC00C38C16002200F49088000F071
:100BB000B5FB0E4908600EE00D480E490A468CCA86
:100BC000C9688CC00C38C16003200749088000F058
:100BD000A5FB06490860F8BD00F8000000FC000015
:100BE00000FB000000FF00000400002000000020C7
:100BF000DC00002090130008FEB504460D461021CD
:100C00001548FFF7EDFC00900020144908602646C7
:100C1000FFF73AFEFFF74AFE3046FFF7E5FDFFF724
:100C200045FE042001900C4F09E002CF3046FFF74B
:100C300009FE361DFFF73AFE09480A490860019887
:100C4000411E01910028F0D128460099FFF7FAFDD6
:100C5000FFF7EEFDFEBD0000DC00002000000020DC
:100C6000AAAA00000030004070B504460D460448B2
:100C70004560846000F050FA0249086070BD0000D1
:100C8000DC000020000000200149087070470000CF
:100C90001400002010B500200649088001200649F4
:100CA000088000F039FA00B2044908800120FFF7FB
:100CB000EBFF10BD2E000020300000202C00002093
:100CC0000168012211430160704700002348006859
:100CD000012108432149086000BF20480068022123
:100CE00008400028F9D01D4800681D4908401B49EC
:100CF0000860002048600120C862002008630846A0
:100D000040680121C9040843144948600846006846
:100D10000121090608431149086000BF0F48006817
:100D2000002801D1012000E00020012149060840EF
:100D30000028F3D110200B490860084840680221C0
:100D400008430649486000BF044840680C21084039
:100D50000828F9D10020014988607047001002403E
:100D6000F8FF000000200240F8B50025002400260E
:100D70000027244840680C2108400546002D04D077
:100D8000042D06D0082D2AD107E01F481F4908600E
:100D900029E01F481D49086025E01A4840680F21D6
:100DA00089040840044617484068012109040840A6
:100DB0000646A00C841C002E04D11548604313493C
:100DC00008600BE00F48C06A0007000F471C394657
:100DD0000F48FFF7E3F960430C49086003E00A4855
:100DE0000A49086000BF00BF06484068F02108407B
:100DF000000908490D5C05480068E840034908609F
:100E0000F8BD00000010024000127A001800002017
:100E100000093D00A013000819480068012108439B
:100E20001749086008464068164908401449486058
:100E300008460068144908401149086008460068DF
:100E40000121890488430E490860084640683F2113
:100E5000090488430A4948600846C06A000900013D
:100E6000C8620846006BFF21543188430449086377
:100E70000846406B40084000486300208860704787
:100E8000001002400CB8FFF8FFFFF6FE10B51E4838
:100E9000006902210840002835D01B48C06808407E
:100EA000002830D0194801780068401C174A1060AB
:100EB000C807C00F002804D015480068401C14491A
:100EC00008601448104908610846406B12490968D7
:100ED00040180D4948631148007800280FD00B488E
:100EE0000078C007C00F002804D004210C48FFF789
:100EF0000FFD08E004210A48FFF705FD03E0042187
:100F00000748FFF700FD10BD00040040100000205E
:100F10000C000020FDFF000008000020140000204D
:100F20000004004810B5114800684021084000281E
:100F30000FD00E48C069084000280AD04022114650
:100F40000A4800F019F80A48006841080320FFF732
:100F5000B7FC0648C0690007000F002805D02F2005
:100F60000249086201200349087010BD00380140A1
:100F70004800002044000020036A0B43036203681A
:100F8000934303607047000010B51B480088002899
:100F900031D01A490020085E00F0B8F91849002243
:100FA0008A5E5100174A515E884224D31448008853
:100FB000401C00B2124908800020085E124900223D
:100FC0008A5E904212DA00F0A7F800B20B4908805E
:100FD0000B480078C007C00F002803D00020FFF79F
:100FE00053FE08E00120FFF74FFE04E00020024915
:100FF0000880FFF749FE10BD300000202C000020C3
:101000002E000020580000201E00002010B50024F3
:1010100003213948FFF76CFC00282BD10120374908
:10102000088037480088002864D100F075F83549F9
:1010300008600120324908803348006800F066F9F2
:10104000142801D2204610BD30480088002851D015
:101050002D48006800F05AF900B22C4900228A5E3F
:1010600051002B4A505229480088401C00B22749A1
:1010700008803FE021480088012824D100201F4932
:10108000088022480021415E412903DB00201F49DE
:10109000088010E01B48006800F038F900B21B49D6
:1010A00000228A5E51001A4A505218480088401C9B
:1010B00000B21649088000201149088000F02CF881
:1010C0001149086016E010480068002812D00E4848
:1010D000006800F01BF97D21C90088420AD901246B
:1010E0000020094908600949085E0A490880002073
:1010F000064908802046A6E700040048200000209A
:101100002200002024000020280000201C000020D5
:10111000580000201E0000200149086870470000A8
:101120000C000020FFF7D2FD0420FFF789FCFFF739
:10113000B7FA0020FFF706FD04E00F480F490860EA
:10114000FFF780FA0E4800680028F6D100BFFFF7CD
:1011500079FAFFF75BFF002807D00A480021415EBB
:101160000948FFF7C3F9FFF795FDFFF70DFF00F002
:1011700053F800F00BF8EAE7AAAA0000003000409C
:10118000000000201E0000205800002010B50121A2
:101190001E48FFF7ADFB002810D01D48006800284E
:1011A00014D01B48006800F0B1F81E2802D90120B5
:1011B000FFF708FB00201649086007E014480068A4
:1011C000002803D1FFF7A8FF1149086006210F4846
:1011D000FFF78EFB002810D00E480068002814D0BE
:1011E0000C48006800F092F81E2802D90020FFF792
:1011F000E9FA00200749086007E00648006800286F
:1012000003D1FFF789FF0349086010BD00040048BF
:101210003C0000204000002010B539480021415E0C
:10122000142936D006DC002909D00A2911D00B294F
:101230005FD11AE0152939D01E295AD14BE000217F
:101240003048FFF760FB07210920C006FFF75BFB72
:1012500053E000212B48FFF75BFBFFF75DFF2A49B6
:1012600008600B202649088047E02748006800F006
:101270004DF8FF212D3188420AD91E2020490880CF
:1012800000212048FFF73FFBFFF746FF1E4908609B
:1012900033E007210920C006FFF73AFBFFF73CFFC8
:1012A0001949086015201649088026E0164800688C
:1012B00000F02CF8FF212D3188420BD91E20104957
:1012C000088007210920C006FFF71DFBFFF724FF58
:1012D0000D49086011E00C48006800F017F8FF2184
:1012E000F531884204D90020074908600449088084
:1012F00003E000200249088000BF00BF10BD0000CD
:101300003400002000040048380000200146024854
:101310000268501A704700000C000020024908685B
:10132000002800D1401E70470C00002070B5012538
:101330000C002D051C4310D4EC4206D4AC420AD458
:10134000994200D070BD904270BDE94217D4EB4283
:1013500015D4994270BD894270BDEC4206D5AC42AD
:10136000F9D58B4200D070BD824270BD6D004C003B
:10137000EC4204D25C00EC4201D28B4270BD034CC3
:1013800030B4FEF7E7FF30BC70BD00BF1900160493
:10139000010000007B000000C80100000000000008
:1013A0000000000000000000010203040607080915
:1013B000D0130008000000205800000004010008BD
:1013C0002814000858000020F80800002001000838
:1013D000000000000000000000000000000000000D
:1013E0000000000000000000006CDC0200000000B3
:1013F00000000000000000000000000000000000ED
:1014000000000000000000000000000000000000DC
:1014100000000000000000000000000000000000CC
:081420000000000000000000C4
:04000005080000C12E
:00000001FF
