:020000040800F2
:10000000480900209D010008A5010008A70100087B
:100010009D01000800E70000000325500001000DCD
:10002000000000000000000000000000A90100081E
:100030000000000000000000AB010008AD01000856
:10004000AF010008AF010008AF010008AF010008D0
:10005000AF010008AF010008AF010008AF010008C0
:10006000AF010008AF010008AF010008AF010008B0
:10007000AF010008AF010008AF010008AF010008A0
:10008000750C0008AF01000800000000AF01000877
:10009000AF010008AF010008AF010008AF01000880
:1000A000AF010008AF010008AF0100080D0D000806
:1000B000AF01000800000000AF01000800000000D0
:1000C00000F002F800F03EF80CA030C80838241800
:1000D0002D18A246671EAB4654465D46AC4201D180
:1000E00000F030F87E460F3E0FCCB6460126334274
:1000F00000D0FB1AA246AB46334318471C10000041
:100100003C100000103A02D378C878C1FAD85207E0
:1001100001D330C830C101D504680C6070470000BD
:100120000023002400250026103A01D378C1FBD813
:10013000520700D330C100D50B6070471FB51FBDFB
:1001400010B510BD00F037F91146FFF7F7FF00F0CA
:10015000DDFE00F04FF903B4FFF7F2FF03BC00F03F
:1001600055F9000070B505460C46164602E00FCC66
:100170000FC5103E102EFAD2082E02D303CC03C5B1
:10018000083E042E07D301CC01C5361F03E02178B9
:100190002970641C6D1C761EF9D270BD074880471B
:1001A00007480047FEE7FEE7FEE7FEE7FEE7FEE75B
:1001B00004480549054A064B70470000010C000839
:1001C000C100000848010020480900204803002021
:1001D00048030020F8B5042A2CD3830712D00B78EB
:1001E000491C0370401C521E83070BD00B78491C1E
:1001F0000370401C521E830704D00B78491C037007
:10020000401C521E8B079B0F05D0C91ADF0020230C
:10021000DE1B08C90AE0FFF7A5FFF8BD1D4608C9A7
:10022000FD401C46B4402C4310C0121F042AF5D2D6
:10023000F308C91A521EF0D40B78491C0370401CF5
:10024000521EEAD40B78491C0370401C012AE4D4E6
:1002500009780170F8BD002203098B422CD3030AF0
:100260008B4211D300239C464EE003460B433CD403
:10027000002243088B4231D303098B421CD3030A6B
:100280008B4201D394463FE0C3098B4201D3CB019B
:10029000C01A524183098B4201D38B01C01A5241CB
:1002A00043098B4201D34B01C01A524103098B42CF
:1002B00001D30B01C01A5241C3088B4201D3CB00BA
:1002C000C01A524183088B4201D38B00C01A52419D
:1002D00043088B4201D34B00C01A5241411A00D24D
:1002E00001465241104670475DE0CA0F00D04942B6
:1002F000031000D34042534000229C4603098B4226
:100300002DD3030A8B4212D3FC22890112BA030AAD
:100310008B420CD3890192118B4208D3890192112F
:100320008B4204D389013AD0921100E08909C309B4
:100330008B4201D3CB01C01A524183098B4201D3B6
:100340008B01C01A524143098B4201D34B01C01AA1
:10035000524103098B4201D30B01C01A5241C30819
:100360008B4201D3CB00C01A524183088B4201D388
:100370008B00C01A5241D9D243088B4201D34B00A3
:10038000C01A5241411A00D20146634652415B10E5
:10039000104601D34042002B00D5494270476346C6
:1003A0005B1000D3404201B50020C046C04602BDEC
:1003B000704770477047754600F024F8AE46050058
:1003C00069465346C008C000854618B020B5FFF7FF
:1003D000EFFE60BC00274908B6460026C0C5C0C570
:1003E000C0C5C0C5C0C5C0C5C0C5C0C5403D490029
:1003F0008D46704710B50446C046C0462046FFF7FC
:10040000AAFE10BD00487047E800002001491820EE
:10041000ABBEFEE7260002007047000030B5024682
:100420000B460C48002112E0555C684000240AE0AD
:10043000C507ED0F002D03D04010074D684000E0C8
:100440004010651CACB2082CF2DB4D1CA9B29942DD
:10045000EADB30BDFFFF000001A0000010B5002462
:100460001048006800280BD00E48006800F038FEE5
:100470007D21C900884201D9012002E0002000E06E
:10048000002000280BD00849084800F0B9FA0849B4
:10049000084800F0B5FA012400200249086020460F
:1004A00010BD00000C00002000FB000000F8000060
:1004B00000FF000000FC000010B5464840692F21F5
:1004C00049040843434948610846C069022108437A
:1004D0004049C86108468069012108433D49886157
:1004E00000231A4619463C4800F068F900231A46D2
:1004F00007210920C00600F061F90023012206212E
:100500000920C00600F05AF900231A460421324897
:1005100000F054F9FF22013201212F4800F008F9C0
:10052000FF22013206212C4800F002F9FF2201329D
:100530000F210920C00600F0FBF800220321264805
:1005400000F0F6F80122520200210920C00600F056
:10055000EFF80122520201210920C00600F0E8F85C
:100560000122520202210920C00600F0E1F8012216
:10057000520203210920C00600F0DAF801225202DB
:1005800004210920C00600F0D3F8012252020521FF
:100590000920C00600F0CCF8012252020B210920EC
:1005A000C00600F0C5F8012252020C210920C00645
:1005B00000F0BEF8012252020521074800F0B8F809
:1005C000012252020721044800F0B2F800F086F937
:1005D00062B610BD001002400004004807490988B7
:1005E000002900D07047002803D00A21034A118057
:1005F00002E01421014A118000BFF3E7400000200F
:1006000000B5014600F05EF80D4800690D4A104043
:100610000B4A10611046006902221043084A10611B
:1006200010464161006940221043054A106100F004
:1006300049F80348006902229043014A106100BD55
:1006400000200240C9DEFFFF034800698021084303
:1006500001490861704700000020024000B50246D1
:1006600000F030F80C4800690C4B18400A4B186138
:100670001846006901231843074B1861118000F0E8
:1006800021F8080C508000F01DF80348006940086C
:100690004000014B186100BD00200240C9DEFFFF91
:1006A0000548006980210840002804D00348024919
:1006B00048600348486070470020024023016745B6
:1006C000AB89EFCD00BF0348C068C007C00F00284A
:1006D000F9D1704700200240094B1870094A526A4C
:1006E0005218084B9A631A46126904239A43054B21
:1006F0001A611A46D26804231A43024BDA60704723
:100700005A000020000400400246106901238B407B
:100710001840002801D0012070470020FCE701228A
:100720008A4012048261704701228A4082617047C8
:10073000F0B50C4613460126A64035466700032651
:10074000BE40314606688E43066010261E40002ECD
:1007500003D046682E43466002E04668AE434660DA
:1007600082688A43012676031E40002E03D0164677
:100770000E43324607E0012636031E40002E02D00B
:100780000D4E0E4032438260C6688E433246FF26CD
:1007900001361E40002E03D0074E0E40324308E0C3
:1007A000012676021E40002E03D0034EF6430E4073
:1007B0003243C260F0BD000055555555FFB50C469B
:1007C0000126A640354667000326BE40314606682E
:1007D0008E43204F0F403E43066010261E40002EE1
:1007E00003D046682E43466002E04668AE4346604A
:1007F00082688A43012676031E40002E03D01646E7
:100800000E43324607E0012636031E40002E02D07A
:10081000104E0E4032438260C6688E433246FF2639
:1008200001361E40002E03D00A4E0E40324308E02F
:10083000012676021E40002E03D0064EF6430E40DF
:100840003243C260029E002E01D0856101E02E0479
:100850008661FFBD55555555022801DB811EC8B282
:10086000072800DD07200449044A1160114648604A
:100870000021116070470000555500000030004015
:1008800030B50B46012B06D0022B0ED0032B12D015
:10089000042B20D119E08469FF252D022C4021462C
:1008A0000C4614432146816115E08469E1B21402CB
:1008B000214381610FE0C469FF252D022C402146B0
:1008C0000C4614432146C16105E0C469E1B214023B
:1008D0002143C16100BF00BF30BD000008B500F07A
:1008E00037F97D21890112480068FFF7B4FC401EEA
:1008F00010490860022000231A460F2100900E487C
:1009000000F01EF8002201210B48FFF7B9FF09484B
:100910000068094948630020486210200121814095
:10092000064A116000BF044800F0BEF808BD000090
:1009300024000020140000200004004000E100E03A
:1009400030B5039C002505604360C46081626D1E64
:10095000C56202600125456130BD0000F8B507465B
:10096000062421461E48FFF759FD054621461D482D
:10097000FFF754FD06461C480088854212D1AE425E
:1009800003D11A480088A84206D0012018490880DF
:1009900000F0AEFB17490860062211491648FFF720
:1009A00019FC1CE01148008886420CD106220D4932
:1009B0001148FFF70FFC02200D49088000F098FB5A
:1009C0000C4908600BE006220C490B48FFF702FCBB
:1009D00003200749088000F08BFB06490860F8BD3A
:1009E00000F8000000FC000000FB000000FF000019
:1009F000100000200C00002004000020001100085E
:100A0000FEB504460D4606211548FFF707FD009088
:100A10000020144908602646FFF742FEFFF752FE09
:100A20003046FFF7EDFDFFF74DFE022001900C4F21
:100A300009E002CF3046FFF711FE361DFFF742FEF8
:100A400009480A4908600198411E01910028F0D127
:100A500028460099FFF702FEFFF7F6FDFEBD0000F5
:100A6000040000200C000020AAAA00000030004072
:100A700001490870704700002000002010B50020D8
:100A80000649088001200649088000F039FA00B2C2
:100A9000044908800120FFF7EBFF10BD3A00002059
:100AA0003C00002038000020016801221143016051
:100AB000704700002348006801210843214908606D
:100AC00000BF20480068022108400028F9D01D48D6
:100AD00000681D4908401B4908600020486001204B
:100AE000C86200200863084640680121C904084321
:100AF0001449486008460068012109060843114965
:100B0000086000BF0F480068002801D1012000E004
:100B100000200121490608400028F3D110200B498C
:100B2000086008484068022108430649486000BF41
:100B3000044840680C2108400828F9D100200149E8
:100B40008860704700100240F8FF0000002002405B
:100B5000F8B50025002400260027244840680C2111
:100B600008400546002D04D0042D06D0082D2AD1BA
:100B700007E01F481F49086029E01F481D49086019
:100B800025E01A4840680F218904084004461748A8
:100B900040680121090408400646A00C841C002E70
:100BA00004D115486043134908600BE00F48C06A40
:100BB0000007000F471C39460F48FFF74CFB604306
:100BC0000C49086003E00A480A49086000BF00BFFA
:100BD00006484068F0210840000908490D5C0548B6
:100BE0000068E84003490860F8BD000000100240BA
:100BF00000127A002400002000093D0006110008C0
:100C000019480068012108431749086008464068F0
:100C100016490840144948600846006814490840CD
:100C200011490860084600680121890488430E497B
:100C30000860084640683F21090488430A49486023
:100C40000846C06A00090001C8620846006BFF211F
:100C500054318843044908630846406B400840000B
:100C60004863002088607047001002400CB8FFF80D
:100C7000FFFFF6FE10B51E4800690221084000285B
:100C800035D01B48C0680840002830D0194801788A
:100C90000068401C174A1060C807C00F002804D025
:100CA00015480068401C1449086014481049086140
:100CB0000846406B1249096840180D4948631148BD
:100CC000007800280FD00B480078C007C00F00281C
:100CD00004D004210C48FFF727FD08E004210A484E
:100CE000FFF71DFD03E004210748FFF718FD10BDC5
:100CF000000400401C00002018000020FDFF000040
:100D000014000020200000200004004810B5114805
:100D100000684021084000280FD00E48C0690840F4
:100D200000280AD0402211460A4800F019F80A4863
:100D3000006841080320FFF7CFFC0648C0690007A0
:100D4000000F002805D02F20024908620120034926
:100D5000087010BD003801405400002050000020F1
:100D6000036A0B4303620368934303607047000008
:100D700010B51B480088002831D01A490020085EB1
:100D800000F0AEF9184900228A5E5100174A515E00
:100D9000884224D314480088401C00B212490880BD
:100DA0000020085E124900228A5E904212DA00F0AA
:100DB000A7F800B20B4908800B480078C007C00FA5
:100DC000002803D00020FFF753FE08E00120FFF7C2
:100DD0004FFE04E0002002490880FFF749FE10BDE5
:100DE0003C000020380000203A0000206400002071
:100DF0000000002010B5002403213948FFF784FCCF
:100E000000282BD101203749088037480088002866
:100E100064D100F075F83549086001203249088036
:100E20003348006800F05CF9142801D2204610BD58
:100E300030480088002851D02D48006800F050F953
:100E400000B22C4900228A5E51002B4A5052294898
:100E50000088401C00B2274908803FE021480088F4
:100E6000012824D100201F49088022480021415E2A
:100E7000412903DB00201F49088010E01B4800685F
:100E800000F02EF900B21B4900228A5E51001A4A76
:100E9000505218480088401C00B2164908800020B3
:100EA0001149088000F02CF81149086016E010483C
:100EB0000068002812D00E48006800F011F97D216A
:100EC000C90088420AD9012400200949086009495B
:100ED000085E0A4908800020064908802046A6E7E7
:100EE000000400482A0000202C00002030000020D0
:100EF00034000020280000206400002000000020B2
:100F0000014908687047000018000020FFF7D2FD73
:100F10000420FFF7A1FCFFF7CFFA0020FFF71EFD2A
:100F200004E00C480C490860FFF798FA0B48006889
:100F30000028F6D100BFFFF791FAFFF75BFF00280A
:100F400001D0FFF79BFDFFF713FF00F04FF800F013
:100F500007F8F0E7AAAA0000003000400C000020CB
:100F600010B501211E48FFF7CFFB002810D01D4807
:100F70000068002814D01B48006800F0B1F81E2853
:100F800002D90120FFF72AFB00201649086007E07C
:100F900014480068002803D1FFF7B2FF1149086028
:100FA00006210F48FFF7B0FB002810D00E4800685C
:100FB000002814D00C48006800F092F81E2802D9CE
:100FC0000020FFF70BFB00200749086007E00648F8
:100FD0000068002803D1FFF793FF0349086010BDA4
:100FE00000040048480000204C00002010B539489B
:100FF0000021415E142936D006DC002909D00A29D7
:1010000011D00B295FD11AE0152939D01E295AD1E8
:101010004BE000213048FFF782FB07210920C00682
:10102000FFF77DFB53E000212B48FFF77DFBFFF727
:1010300067FF2A4908600B202649088047E02748B7
:10104000006800F04DF8FF212D3188420AD91E209A
:101050002049088000212048FFF761FBFFF750FF7F
:101060001E49086033E007210920C006FFF75CFB3A
:10107000FFF746FF1949086015201649088026E049
:101080001648006800F02CF8FF212D3188420BD95A
:101090001E201049088007210920C006FFF73FFBEA
:1010A000FFF72EFF0D49086011E00C48006800F0C2
:1010B00017F8FF21F531884204D90020074908605C
:1010C0000449088003E000200249088000BF00BFF7
:1010D00010BD000040000020000400484400002033
:1010E000014602480268501A7047000018000020AC
:1010F00002490868002800D1401E704718000020EF
:1011000001007B00C8010000000000000000010297
:101110000304060708090000381100080000002039
:1011200064000000040100089C1100086400002015
:10113000E40800002001000800000000000000009A
:10114000000000000000000000000000000000009F
:10115000000000000000000000000000006CDC0245
:10116000000000000000000000000000000000007F
:10117000000000000000000000000000000000006F
:10118000000000000000000000000000000000005F
:0C11900000000000000000000000000053
:04000005080000C12E
:00000001FF
